{
  "_format": "hh-sol-artifact-1",
  "contractName": "TestNFT",
  "sourceName": "contracts/NFT.sol",
  "abi": [
    {
      "inputs": [],
      "stateMutability": "nonpayable",
      "type": "constructor"
    },
    {
      "inputs": [
        {
          "internalType": "address",
          "name": "sender",
          "type": "address"
        },
        {
          "internalType": "uint256",
          "name": "tokenId",
          "type": "uint256"
        },
        {
          "internalType": "address",
          "name": "owner",
          "type": "address"
        }
      ],
      "name": "ERC721IncorrectOwner",
      "type": "error"
    },
    {
      "inputs": [
        {
          "internalType": "address",
          "name": "operator",
          "type": "address"
        },
        {
          "internalType": "uint256",
          "name": "tokenId",
          "type": "uint256"
        }
      ],
      "name": "ERC721InsufficientApproval",
      "type": "error"
    },
    {
      "inputs": [
        {
          "internalType": "address",
          "name": "approver",
          "type": "address"
        }
      ],
      "name": "ERC721InvalidApprover",
      "type": "error"
    },
    {
      "inputs": [
        {
          "internalType": "address",
          "name": "operator",
          "type": "address"
        }
      ],
      "name": "ERC721InvalidOperator",
      "type": "error"
    },
    {
      "inputs": [
        {
          "internalType": "address",
          "name": "owner",
          "type": "address"
        }
      ],
      "name": "ERC721InvalidOwner",
      "type": "error"
    },
    {
      "inputs": [
        {
          "internalType": "address",
          "name": "receiver",
          "type": "address"
        }
      ],
      "name": "ERC721InvalidReceiver",
      "type": "error"
    },
    {
      "inputs": [
        {
          "internalType": "address",
          "name": "sender",
          "type": "address"
        }
      ],
      "name": "ERC721InvalidSender",
      "type": "error"
    },
    {
      "inputs": [
        {
          "internalType": "uint256",
          "name": "tokenId",
          "type": "uint256"
        }
      ],
      "name": "ERC721NonexistentToken",
      "type": "error"
    },
    {
      "anonymous": false,
      "inputs": [
        {
          "indexed": true,
          "internalType": "address",
          "name": "owner",
          "type": "address"
        },
        {
          "indexed": true,
          "internalType": "address",
          "name": "approved",
          "type": "address"
        },
        {
          "indexed": true,
          "internalType": "uint256",
          "name": "tokenId",
          "type": "uint256"
        }
      ],
      "name": "Approval",
      "type": "event"
    },
    {
      "anonymous": false,
      "inputs": [
        {
          "indexed": true,
          "internalType": "address",
          "name": "owner",
          "type": "address"
        },
        {
          "indexed": true,
          "internalType": "address",
          "name": "operator",
          "type": "address"
        },
        {
          "indexed": false,
          "internalType": "bool",
          "name": "approved",
          "type": "bool"
        }
      ],
      "name": "ApprovalForAll",
      "type": "event"
    },
    {
      "anonymous": false,
      "inputs": [
        {
          "indexed": true,
          "internalType": "address",
          "name": "from",
          "type": "address"
        },
        {
          "indexed": true,
          "internalType": "address",
          "name": "to",
          "type": "address"
        },
        {
          "indexed": true,
          "internalType": "uint256",
          "name": "tokenId",
          "type": "uint256"
        }
      ],
      "name": "Transfer",
      "type": "event"
    },
    {
      "inputs": [
        {
          "internalType": "address",
          "name": "to",
          "type": "address"
        },
        {
          "internalType": "uint256",
          "name": "tokenId",
          "type": "uint256"
        }
      ],
      "name": "approve",
      "outputs": [],
      "stateMutability": "nonpayable",
      "type": "function"
    },
    {
      "inputs": [
        {
          "internalType": "address",
          "name": "owner",
          "type": "address"
        }
      ],
      "name": "balanceOf",
      "outputs": [
        {
          "internalType": "uint256",
          "name": "",
          "type": "uint256"
        }
      ],
      "stateMutability": "view",
      "type": "function"
    },
    {
      "inputs": [
        {
          "internalType": "uint256",
          "name": "tokenId",
          "type": "uint256"
        }
      ],
      "name": "burn",
      "outputs": [],
      "stateMutability": "nonpayable",
      "type": "function"
    },
    {
      "inputs": [
        {
          "internalType": "uint256",
          "name": "tokenId",
          "type": "uint256"
        }
      ],
      "name": "getApproved",
      "outputs": [
        {
          "internalType": "address",
          "name": "",
          "type": "address"
        }
      ],
      "stateMutability": "view",
      "type": "function"
    },
    {
      "inputs": [
        {
          "internalType": "address",
          "name": "owner",
          "type": "address"
        },
        {
          "internalType": "address",
          "name": "operator",
          "type": "address"
        }
      ],
      "name": "isApprovedForAll",
      "outputs": [
        {
          "internalType": "bool",
          "name": "",
          "type": "bool"
        }
      ],
      "stateMutability": "view",
      "type": "function"
    },
    {
      "inputs": [],
      "name": "name",
      "outputs": [
        {
          "internalType": "string",
          "name": "",
          "type": "string"
        }
      ],
      "stateMutability": "view",
      "type": "function"
    },
    {
      "inputs": [
        {
          "internalType": "uint256",
          "name": "tokenId",
          "type": "uint256"
        }
      ],
      "name": "ownerOf",
      "outputs": [
        {
          "internalType": "address",
          "name": "",
          "type": "address"
        }
      ],
      "stateMutability": "view",
      "type": "function"
    },
    {
      "inputs": [
        {
          "internalType": "address",
          "name": "to",
          "type": "address"
        },
        {
          "internalType": "uint256",
          "name": "tokenId",
          "type": "uint256"
        }
      ],
      "name": "safeMint",
      "outputs": [],
      "stateMutability": "nonpayable",
      "type": "function"
    },
    {
      "inputs": [
        {
          "internalType": "address",
          "name": "from",
          "type": "address"
        },
        {
          "internalType": "address",
          "name": "to",
          "type": "address"
        },
        {
          "internalType": "uint256",
          "name": "tokenId",
          "type": "uint256"
        }
      ],
      "name": "safeTransferFrom",
      "outputs": [],
      "stateMutability": "nonpayable",
      "type": "function"
    },
    {
      "inputs": [
        {
          "internalType": "address",
          "name": "from",
          "type": "address"
        },
        {
          "internalType": "address",
          "name": "to",
          "type": "address"
        },
        {
          "internalType": "uint256",
          "name": "tokenId",
          "type": "uint256"
        },
        {
          "internalType": "bytes",
          "name": "data",
          "type": "bytes"
        }
      ],
      "name": "safeTransferFrom",
      "outputs": [],
      "stateMutability": "nonpayable",
      "type": "function"
    },
    {
      "inputs": [
        {
          "internalType": "address",
          "name": "operator",
          "type": "address"
        },
        {
          "internalType": "bool",
          "name": "approved",
          "type": "bool"
        }
      ],
      "name": "setApprovalForAll",
      "outputs": [],
      "stateMutability": "nonpayable",
      "type": "function"
    },
    {
      "inputs": [
        {
          "internalType": "bytes4",
          "name": "interfaceId",
          "type": "bytes4"
        }
      ],
      "name": "supportsInterface",
      "outputs": [
        {
          "internalType": "bool",
          "name": "",
          "type": "bool"
        }
      ],
      "stateMutability": "view",
      "type": "function"
    },
    {
      "inputs": [],
      "name": "symbol",
      "outputs": [
        {
          "internalType": "string",
          "name": "",
          "type": "string"
        }
      ],
      "stateMutability": "view",
      "type": "function"
    },
    {
      "inputs": [
        {
          "internalType": "uint256",
          "name": "tokenId",
          "type": "uint256"
        }
      ],
      "name": "tokenURI",
      "outputs": [
        {
          "internalType": "string",
          "name": "",
          "type": "string"
        }
      ],
      "stateMutability": "view",
      "type": "function"
    },
    {
      "inputs": [
        {
          "internalType": "address",
          "name": "from",
          "type": "address"
        },
        {
          "internalType": "address",
          "name": "to",
          "type": "address"
        },
        {
          "internalType": "uint256",
          "name": "tokenId",
          "type": "uint256"
        }
      ],
      "name": "transferFrom",
      "outputs": [],
      "stateMutability": "nonpayable",
      "type": "function"
    }
  ],
  "bytecode": "0x60806040523480156200001157600080fd5b506040518060400160405280600481526020017f50484154000000000000000000000000000000000000000000000000000000008152506040518060400160405280600381526020017f464154000000000000000000000000000000000000000000000000000000000081525081600090816200008f919062000324565b508060019081620000a1919062000324565b5050506200040b565b600081519050919050565b7f4e487b7100000000000000000000000000000000000000000000000000000000600052604160045260246000fd5b7f4e487b7100000000000000000000000000000000000000000000000000000000600052602260045260246000fd5b600060028204905060018216806200012c57607f821691505b602082108103620001425762000141620000e4565b5b50919050565b60008190508160005260206000209050919050565b60006020601f8301049050919050565b600082821b905092915050565b600060088302620001ac7fffffffffffffffffffffffffffffffffffffffffffffffffffffffffffffffff826200016d565b620001b886836200016d565b95508019841693508086168417925050509392505050565b6000819050919050565b6000819050919050565b600062000205620001ff620001f984620001d0565b620001da565b620001d0565b9050919050565b6000819050919050565b6200022183620001e4565b6200023962000230826200020c565b8484546200017a565b825550505050565b600090565b6200025062000241565b6200025d81848462000216565b505050565b5b8181101562000285576200027960008262000246565b60018101905062000263565b5050565b601f821115620002d4576200029e8162000148565b620002a9846200015d565b81016020851015620002b9578190505b620002d1620002c8856200015d565b83018262000262565b50505b505050565b600082821c905092915050565b6000620002f960001984600802620002d9565b1980831691505092915050565b6000620003148383620002e6565b9150826002028217905092915050565b6200032f82620000aa565b67ffffffffffffffff8111156200034b576200034a620000b5565b5b62000357825462000113565b6200036482828562000289565b600060209050601f8311600181146200039c576000841562000387578287015190505b62000393858262000306565b86555062000403565b601f198416620003ac8662000148565b60005b82811015620003d657848901518255600182019150602085019450602081019050620003af565b86831015620003f65784890151620003f2601f891682620002e6565b8355505b6001600288020188555050505b505050505050565b611e32806200041b6000396000f3fe608060405234801561001057600080fd5b50600436106100f55760003560e01c80636352211e11610097578063a22cb46511610066578063a22cb46514610282578063b88d4fde1461029e578063c87b56dd146102ba578063e985e9c5146102ea576100f5565b80636352211e146101e857806370a082311461021857806395d89b4114610248578063a144819414610266576100f5565b8063095ea7b3116100d3578063095ea7b31461017857806323b872dd1461019457806342842e0e146101b057806342966c68146101cc576100f5565b806301ffc9a7146100fa57806306fdde031461012a578063081812fc14610148575b600080fd5b610114600480360381019061010f919061167c565b61031a565b60405161012191906116c4565b60405180910390f35b6101326103fc565b60405161013f919061176f565b60405180910390f35b610162600480360381019061015d91906117c7565b61048e565b60405161016f9190611835565b60405180910390f35b610192600480360381019061018d919061187c565b6104aa565b005b6101ae60048036038101906101a991906118bc565b6104c0565b005b6101ca60048036038101906101c591906118bc565b6105c2565b005b6101e660048036038101906101e191906117c7565b6105e2565b005b61020260048036038101906101fd91906117c7565b6105f9565b60405161020f9190611835565b60405180910390f35b610232600480360381019061022d919061190f565b61060b565b60405161023f919061194b565b60405180910390f35b6102506106c5565b60405161025d919061176f565b60405180910390f35b610280600480360381019061027b919061187c565b610757565b005b61029c60048036038101906102979190611992565b610765565b005b6102b860048036038101906102b39190611b07565b61077b565b005b6102d460048036038101906102cf91906117c7565b610798565b6040516102e1919061176f565b60405180910390f35b61030460048036038101906102ff9190611b8a565b610801565b60405161031191906116c4565b60405180910390f35b60007f80ac58cd000000000000000000000000000000000000000000000000000000007bffffffffffffffffffffffffffffffffffffffffffffffffffffffff1916827bffffffffffffffffffffffffffffffffffffffffffffffffffffffff191614806103e557507f5b5e139f000000000000000000000000000000000000000000000000000000007bffffffffffffffffffffffffffffffffffffffffffffffffffffffff1916827bffffffffffffffffffffffffffffffffffffffffffffffffffffffff1916145b806103f557506103f482610895565b5b9050919050565b60606000805461040b90611bf9565b80601f016020809104026020016040519081016040528092919081815260200182805461043790611bf9565b80156104845780601f1061045957610100808354040283529160200191610484565b820191906000526020600020905b81548152906001019060200180831161046757829003601f168201915b5050505050905090565b6000610499826108ff565b506104a382610987565b9050919050565b6104bc82826104b76109c4565b6109cc565b5050565b600073ffffffffffffffffffffffffffffffffffffffff168273ffffffffffffffffffffffffffffffffffffffff16036105325760006040517f64a0ae920000000000000000000000000000000000000000000000000000000081526004016105299190611835565b60405180910390fd5b600061054683836105416109c4565b6109de565b90508373ffffffffffffffffffffffffffffffffffffffff168173ffffffffffffffffffffffffffffffffffffffff16146105bc578382826040517f64283d7b0000000000000000000000000000000000000000000000000000000081526004016105b393929190611c2a565b60405180910390fd5b50505050565b6105dd8383836040518060200160405280600081525061077b565b505050565b6105f56000826105f06109c4565b6109de565b5050565b6000610604826108ff565b9050919050565b60008073ffffffffffffffffffffffffffffffffffffffff168273ffffffffffffffffffffffffffffffffffffffff160361067e5760006040517f89c62b640000000000000000000000000000000000000000000000000000000081526004016106759190611835565b60405180910390fd5b600360008373ffffffffffffffffffffffffffffffffffffffff1673ffffffffffffffffffffffffffffffffffffffff168152602001908152602001600020549050919050565b6060600180546106d490611bf9565b80601f016020809104026020016040519081016040528092919081815260200182805461070090611bf9565b801561074d5780601f106107225761010080835404028352916020019161074d565b820191906000526020600020905b81548152906001019060200180831161073057829003601f168201915b5050505050905090565b6107618282610bf8565b5050565b6107776107706109c4565b8383610c16565b5050565b6107868484846104c0565b61079284848484610d85565b50505050565b60606107a3826108ff565b5060006107ae610f3c565b905060008151116107ce57604051806020016040528060008152506107f9565b806107d884610f53565b6040516020016107e9929190611c9d565b6040516020818303038152906040525b915050919050565b6000600560008473ffffffffffffffffffffffffffffffffffffffff1673ffffffffffffffffffffffffffffffffffffffff16815260200190815260200160002060008373ffffffffffffffffffffffffffffffffffffffff1673ffffffffffffffffffffffffffffffffffffffff16815260200190815260200160002060009054906101000a900460ff16905092915050565b60007f01ffc9a7000000000000000000000000000000000000000000000000000000007bffffffffffffffffffffffffffffffffffffffffffffffffffffffff1916827bffffffffffffffffffffffffffffffffffffffffffffffffffffffff1916149050919050565b60008061090b83611021565b9050600073ffffffffffffffffffffffffffffffffffffffff168173ffffffffffffffffffffffffffffffffffffffff160361097e57826040517f7e273289000000000000000000000000000000000000000000000000000000008152600401610975919061194b565b60405180910390fd5b80915050919050565b60006004600083815260200190815260200160002060009054906101000a900473ffffffffffffffffffffffffffffffffffffffff169050919050565b600033905090565b6109d9838383600161105e565b505050565b6000806109ea84611021565b9050600073ffffffffffffffffffffffffffffffffffffffff168373ffffffffffffffffffffffffffffffffffffffff1614610a2c57610a2b818486611223565b5b600073ffffffffffffffffffffffffffffffffffffffff168173ffffffffffffffffffffffffffffffffffffffff1614610abd57610a6e60008560008061105e565b6001600360008373ffffffffffffffffffffffffffffffffffffffff1673ffffffffffffffffffffffffffffffffffffffff168152602001908152602001600020600082825403925050819055505b600073ffffffffffffffffffffffffffffffffffffffff168573ffffffffffffffffffffffffffffffffffffffff1614610b40576001600360008773ffffffffffffffffffffffffffffffffffffffff1673ffffffffffffffffffffffffffffffffffffffff168152602001908152602001600020600082825401925050819055505b846002600086815260200190815260200160002060006101000a81548173ffffffffffffffffffffffffffffffffffffffff021916908373ffffffffffffffffffffffffffffffffffffffff160217905550838573ffffffffffffffffffffffffffffffffffffffff168273ffffffffffffffffffffffffffffffffffffffff167fddf252ad1be2c89b69c2b068fc378daa952ba7f163c4a11628f55a4df523b3ef60405160405180910390a4809150509392505050565b610c128282604051806020016040528060008152506112e7565b5050565b600073ffffffffffffffffffffffffffffffffffffffff168273ffffffffffffffffffffffffffffffffffffffff1603610c8757816040517f5b08ba18000000000000000000000000000000000000000000000000000000008152600401610c7e9190611835565b60405180910390fd5b80600560008573ffffffffffffffffffffffffffffffffffffffff1673ffffffffffffffffffffffffffffffffffffffff16815260200190815260200160002060008473ffffffffffffffffffffffffffffffffffffffff1673ffffffffffffffffffffffffffffffffffffffff16815260200190815260200160002060006101000a81548160ff0219169083151502179055508173ffffffffffffffffffffffffffffffffffffffff168373ffffffffffffffffffffffffffffffffffffffff167f17307eab39ab6107e8899845ad3d59bd9653f200f220920489ca2b5937696c3183604051610d7891906116c4565b60405180910390a3505050565b60008373ffffffffffffffffffffffffffffffffffffffff163b1115610f36578273ffffffffffffffffffffffffffffffffffffffff1663150b7a02610dc96109c4565b8685856040518563ffffffff1660e01b8152600401610deb9493929190611d16565b6020604051808303816000875af1925050508015610e2757506040513d601f19601f82011682018060405250810190610e249190611d77565b60015b610eab573d8060008114610e57576040519150601f19603f3d011682016040523d82523d6000602084013e610e5c565b606091505b506000815103610ea357836040517f64a0ae92000000000000000000000000000000000000000000000000000000008152600401610e9a9190611835565b60405180910390fd5b805181602001fd5b63150b7a0260e01b7bffffffffffffffffffffffffffffffffffffffffffffffffffffffff1916817bffffffffffffffffffffffffffffffffffffffffffffffffffffffff191614610f3457836040517f64a0ae92000000000000000000000000000000000000000000000000000000008152600401610f2b9190611835565b60405180910390fd5b505b50505050565b606060405180602001604052806000815250905090565b606060006001610f6284611303565b01905060008167ffffffffffffffff811115610f8157610f806119dc565b5b6040519080825280601f01601f191660200182016040528015610fb35781602001600182028036833780820191505090505b509050600082602001820190505b600115611016578080600190039150507f3031323334353637383961626364656600000000000000000000000000000000600a86061a8153600a858161100a57611009611da4565b5b04945060008503610fc1575b819350505050919050565b60006002600083815260200190815260200160002060009054906101000a900473ffffffffffffffffffffffffffffffffffffffff169050919050565b80806110975750600073ffffffffffffffffffffffffffffffffffffffff168273ffffffffffffffffffffffffffffffffffffffff1614155b156111cb5760006110a7846108ff565b9050600073ffffffffffffffffffffffffffffffffffffffff168373ffffffffffffffffffffffffffffffffffffffff161415801561111257508273ffffffffffffffffffffffffffffffffffffffff168173ffffffffffffffffffffffffffffffffffffffff1614155b801561112557506111238184610801565b155b1561116757826040517fa9fbf51f00000000000000000000000000000000000000000000000000000000815260040161115e9190611835565b60405180910390fd5b81156111c957838573ffffffffffffffffffffffffffffffffffffffff168273ffffffffffffffffffffffffffffffffffffffff167f8c5be1e5ebec7d5bd14f71427d1e84f3dd0314c0f7b2291e5b200ac8c7c3b92560405160405180910390a45b505b836004600085815260200190815260200160002060006101000a81548173ffffffffffffffffffffffffffffffffffffffff021916908373ffffffffffffffffffffffffffffffffffffffff16021790555050505050565b61122e838383611456565b6112e257600073ffffffffffffffffffffffffffffffffffffffff168373ffffffffffffffffffffffffffffffffffffffff16036112a357806040517f7e27328900000000000000000000000000000000000000000000000000000000815260040161129a919061194b565b60405180910390fd5b81816040517f177e802f0000000000000000000000000000000000000000000000000000000081526004016112d9929190611dd3565b60405180910390fd5b505050565b6112f18383611517565b6112fe6000848484610d85565b505050565b600080600090507a184f03e93ff9f4daa797ed6e38ed64bf6a1f0100000000000000008310611361577a184f03e93ff9f4daa797ed6e38ed64bf6a1f010000000000000000838161135757611356611da4565b5b0492506040810190505b6d04ee2d6d415b85acef8100000000831061139e576d04ee2d6d415b85acef8100000000838161139457611393611da4565b5b0492506020810190505b662386f26fc1000083106113cd57662386f26fc1000083816113c3576113c2611da4565b5b0492506010810190505b6305f5e10083106113f6576305f5e10083816113ec576113eb611da4565b5b0492506008810190505b612710831061141b57612710838161141157611410611da4565b5b0492506004810190505b6064831061143e576064838161143457611433611da4565b5b0492506002810190505b600a831061144d576001810190505b80915050919050565b60008073ffffffffffffffffffffffffffffffffffffffff168373ffffffffffffffffffffffffffffffffffffffff161415801561150e57508273ffffffffffffffffffffffffffffffffffffffff168473ffffffffffffffffffffffffffffffffffffffff1614806114cf57506114ce8484610801565b5b8061150d57508273ffffffffffffffffffffffffffffffffffffffff166114f583610987565b73ffffffffffffffffffffffffffffffffffffffff16145b5b90509392505050565b600073ffffffffffffffffffffffffffffffffffffffff168273ffffffffffffffffffffffffffffffffffffffff16036115895760006040517f64a0ae920000000000000000000000000000000000000000000000000000000081526004016115809190611835565b60405180910390fd5b6000611597838360006109de565b9050600073ffffffffffffffffffffffffffffffffffffffff168173ffffffffffffffffffffffffffffffffffffffff161461160b5760006040517f73c6ac6e0000000000000000000000000000000000000000000000000000000081526004016116029190611835565b60405180910390fd5b505050565b6000604051905090565b600080fd5b600080fd5b60007fffffffff0000000000000000000000000000000000000000000000000000000082169050919050565b61165981611624565b811461166457600080fd5b50565b60008135905061167681611650565b92915050565b6000602082840312156116925761169161161a565b5b60006116a084828501611667565b91505092915050565b60008115159050919050565b6116be816116a9565b82525050565b60006020820190506116d960008301846116b5565b92915050565b600081519050919050565b600082825260208201905092915050565b60005b838110156117195780820151818401526020810190506116fe565b60008484015250505050565b6000601f19601f8301169050919050565b6000611741826116df565b61174b81856116ea565b935061175b8185602086016116fb565b61176481611725565b840191505092915050565b600060208201905081810360008301526117898184611736565b905092915050565b6000819050919050565b6117a481611791565b81146117af57600080fd5b50565b6000813590506117c18161179b565b92915050565b6000602082840312156117dd576117dc61161a565b5b60006117eb848285016117b2565b91505092915050565b600073ffffffffffffffffffffffffffffffffffffffff82169050919050565b600061181f826117f4565b9050919050565b61182f81611814565b82525050565b600060208201905061184a6000830184611826565b92915050565b61185981611814565b811461186457600080fd5b50565b60008135905061187681611850565b92915050565b600080604083850312156118935761189261161a565b5b60006118a185828601611867565b92505060206118b2858286016117b2565b9150509250929050565b6000806000606084860312156118d5576118d461161a565b5b60006118e386828701611867565b93505060206118f486828701611867565b9250506040611905868287016117b2565b9150509250925092565b6000602082840312156119255761192461161a565b5b600061193384828501611867565b91505092915050565b61194581611791565b82525050565b6000602082019050611960600083018461193c565b92915050565b61196f816116a9565b811461197a57600080fd5b50565b60008135905061198c81611966565b92915050565b600080604083850312156119a9576119a861161a565b5b60006119b785828601611867565b92505060206119c88582860161197d565b9150509250929050565b600080fd5b600080fd5b7f4e487b7100000000000000000000000000000000000000000000000000000000600052604160045260246000fd5b611a1482611725565b810181811067ffffffffffffffff82111715611a3357611a326119dc565b5b80604052505050565b6000611a46611610565b9050611a528282611a0b565b919050565b600067ffffffffffffffff821115611a7257611a716119dc565b5b611a7b82611725565b9050602081019050919050565b82818337600083830152505050565b6000611aaa611aa584611a57565b611a3c565b905082815260208101848484011115611ac657611ac56119d7565b5b611ad1848285611a88565b509392505050565b600082601f830112611aee57611aed6119d2565b5b8135611afe848260208601611a97565b91505092915050565b60008060008060808587031215611b2157611b2061161a565b5b6000611b2f87828801611867565b9450506020611b4087828801611867565b9350506040611b51878288016117b2565b925050606085013567ffffffffffffffff811115611b7257611b7161161f565b5b611b7e87828801611ad9565b91505092959194509250565b60008060408385031215611ba157611ba061161a565b5b6000611baf85828601611867565b9250506020611bc085828601611867565b9150509250929050565b7f4e487b7100000000000000000000000000000000000000000000000000000000600052602260045260246000fd5b60006002820490506001821680611c1157607f821691505b602082108103611c2457611c23611bca565b5b50919050565b6000606082019050611c3f6000830186611826565b611c4c602083018561193c565b611c596040830184611826565b949350505050565b600081905092915050565b6000611c77826116df565b611c818185611c61565b9350611c918185602086016116fb565b80840191505092915050565b6000611ca98285611c6c565b9150611cb58284611c6c565b91508190509392505050565b600081519050919050565b600082825260208201905092915050565b6000611ce882611cc1565b611cf28185611ccc565b9350611d028185602086016116fb565b611d0b81611725565b840191505092915050565b6000608082019050611d2b6000830187611826565b611d386020830186611826565b611d45604083018561193c565b8181036060830152611d578184611cdd565b905095945050505050565b600081519050611d7181611650565b92915050565b600060208284031215611d8d57611d8c61161a565b5b6000611d9b84828501611d62565b91505092915050565b7f4e487b7100000000000000000000000000000000000000000000000000000000600052601260045260246000fd5b6000604082019050611de86000830185611826565b611df5602083018461193c565b939250505056fea264697066735822122011ef1207af5454232abfab4d909aa82a3e96332edcb21f9513f87cfc6eaa674964736f6c63430008140033",
  "linkReferences": {},
  "deployedLinkReferences": {}
}